{
  "contractName": "BaseController",
  "abi": [
    {
      "inputs": [],
      "name": "ownerAddr",
      "outputs": [
        {
          "internalType": "address",
          "name": "",
          "type": "address"
        }
      ],
      "stateMutability": "view",
      "type": "function"
    },
    {
      "inputs": [
        {
          "internalType": "address",
          "name": "_newOwner",
          "type": "address"
        }
      ],
      "name": "transferOwnership",
      "outputs": [],
      "stateMutability": "nonpayable",
      "type": "function"
    },
    {
      "inputs": [
        {
          "internalType": "address",
          "name": "_managerAddr",
          "type": "address"
        }
      ],
      "name": "setManagerAddr",
      "outputs": [],
      "stateMutability": "nonpayable",
      "type": "function"
    }
  ],
  "bytecode": "0x608060405234801561001057600080fd5b50336000806101000a81548173ffffffffffffffffffffffffffffffffffffffff021916908373ffffffffffffffffffffffffffffffffffffffff160217905550610318806100606000396000f3fe608060405234801561001057600080fd5b50600436106100415760003560e01c80637978b231146100465780639c675eaa14610062578063f2fde38b14610080575b600080fd5b610060600480360381019061005b9190610246565b61009c565b005b61006a610138565b604051610077919061027e565b60405180910390f35b61009a60048036038101906100959190610246565b61015c565b005b60008054906101000a900473ffffffffffffffffffffffffffffffffffffffff1673ffffffffffffffffffffffffffffffffffffffff163373ffffffffffffffffffffffffffffffffffffffff16146100f457600080fd5b80600160006101000a81548173ffffffffffffffffffffffffffffffffffffffff021916908373ffffffffffffffffffffffffffffffffffffffff16021790555050565b60008054906101000a900473ffffffffffffffffffffffffffffffffffffffff1681565b60008054906101000a900473ffffffffffffffffffffffffffffffffffffffff1673ffffffffffffffffffffffffffffffffffffffff163373ffffffffffffffffffffffffffffffffffffffff16146101b457600080fd5b600073ffffffffffffffffffffffffffffffffffffffff168173ffffffffffffffffffffffffffffffffffffffff1614156101ee57600080fd5b806000806101000a81548173ffffffffffffffffffffffffffffffffffffffff021916908373ffffffffffffffffffffffffffffffffffffffff16021790555050565b600081359050610240816102cb565b92915050565b60006020828403121561025857600080fd5b600061026684828501610231565b91505092915050565b61027881610299565b82525050565b6000602082019050610293600083018461026f565b92915050565b60006102a4826102ab565b9050919050565b600073ffffffffffffffffffffffffffffffffffffffff82169050919050565b6102d481610299565b81146102df57600080fd5b5056fea2646970667358221220fd58bc2fc61c948c8c6d5b2997107e65f2a0724b9801f98a071cd796358365a664736f6c63430008020033",
  "immutableReferences": {},
  "source": "// SPDX-License-Identifier: MIT \npragma solidity >=0.7.0 <0.9.0;\n\n\nimport './Owned.sol';\n\n\ncontract BaseController is Owned {\n    address managerAddr;\n\n    function setManagerAddr(address _managerAddr) public onlyOwner {\n        managerAddr = _managerAddr;\n    }\n}",
  "sourcePath": "/Users/mmmjck/Documents/Projects/web3/tweether/contracts/helpers/BaseController.sol",
  "compiler": {
    "name": "solc",
    "version": "0.8.2+commit.661d1103.Emscripten.clang"
  },
  "schemaVersion": "3.4.16",
  "updatedAt": "2024-06-21T21:08:25.119Z",
  "devdoc": {
    "kind": "dev",
    "methods": {},
    "version": 1
  },
  "userdoc": {
    "kind": "user",
    "methods": {},
    "version": 1
  }
}