{
  "contractName": "BaseStorage",
  "abi": [
    {
      "inputs": [],
      "name": "controllerAddr",
      "outputs": [
        {
          "internalType": "address",
          "name": "",
          "type": "address"
        }
      ],
      "stateMutability": "view",
      "type": "function"
    },
    {
      "inputs": [],
      "name": "ownerAddr",
      "outputs": [
        {
          "internalType": "address",
          "name": "",
          "type": "address"
        }
      ],
      "stateMutability": "view",
      "type": "function"
    },
    {
      "inputs": [
        {
          "internalType": "address",
          "name": "_newOwner",
          "type": "address"
        }
      ],
      "name": "transferOwnership",
      "outputs": [],
      "stateMutability": "nonpayable",
      "type": "function"
    },
    {
      "inputs": [
        {
          "internalType": "address",
          "name": "_controllerAddress",
          "type": "address"
        }
      ],
      "name": "setControllerAddr",
      "outputs": [],
      "stateMutability": "nonpayable",
      "type": "function"
    }
  ],
  "bytecode": "0x608060405234801561001057600080fd5b50336000806101000a81548173ffffffffffffffffffffffffffffffffffffffff021916908373ffffffffffffffffffffffffffffffffffffffff160217905550610367806100606000396000f3fe608060405234801561001057600080fd5b506004361061004c5760003560e01c80636981fa7d146100515780639c675eaa1461006d578063ee255c571461008b578063f2fde38b146100a9575b600080fd5b61006b60048036038101906100669190610295565b6100c5565b005b610075610161565b60405161008291906102cd565b60405180910390f35b610093610185565b6040516100a091906102cd565b60405180910390f35b6100c360048036038101906100be9190610295565b6101ab565b005b60008054906101000a900473ffffffffffffffffffffffffffffffffffffffff1673ffffffffffffffffffffffffffffffffffffffff163373ffffffffffffffffffffffffffffffffffffffff161461011d57600080fd5b80600160006101000a81548173ffffffffffffffffffffffffffffffffffffffff021916908373ffffffffffffffffffffffffffffffffffffffff16021790555050565b60008054906101000a900473ffffffffffffffffffffffffffffffffffffffff1681565b600160009054906101000a900473ffffffffffffffffffffffffffffffffffffffff1681565b60008054906101000a900473ffffffffffffffffffffffffffffffffffffffff1673ffffffffffffffffffffffffffffffffffffffff163373ffffffffffffffffffffffffffffffffffffffff161461020357600080fd5b600073ffffffffffffffffffffffffffffffffffffffff168173ffffffffffffffffffffffffffffffffffffffff16141561023d57600080fd5b806000806101000a81548173ffffffffffffffffffffffffffffffffffffffff021916908373ffffffffffffffffffffffffffffffffffffffff16021790555050565b60008135905061028f8161031a565b92915050565b6000602082840312156102a757600080fd5b60006102b584828501610280565b91505092915050565b6102c7816102e8565b82525050565b60006020820190506102e260008301846102be565b92915050565b60006102f3826102fa565b9050919050565b600073ffffffffffffffffffffffffffffffffffffffff82169050919050565b610323816102e8565b811461032e57600080fd5b5056fea2646970667358221220e68172a70da4feedfd0e155ef7b83a187a6432bb43123bddcf7075dc82a61b8664736f6c63430008020033",
  "immutableReferences": {},
  "source": "// SPDX-License-Identifier: MIT \npragma solidity >=0.7.0 <0.9.0;\n\nimport '../helpers/Owned.sol';\n\n\ncontract BaseStorage is Owned { \n    address public controllerAddr;\n\n\n    modifier onlyController() {\n        require(msg.sender == controllerAddr);\n        _;\n    }\n\n    function setControllerAddr(address _controllerAddress) public onlyOwner{\n        controllerAddr = _controllerAddress;\n    }\n   \n}\n\n",
  "sourcePath": "/Users/mmmjck/Documents/Projects/web3/tweether/contracts/helpers/BaseStorage.sol",
  "compiler": {
    "name": "solc",
    "version": "0.8.2+commit.661d1103.Emscripten.clang"
  },
  "schemaVersion": "3.4.16",
  "updatedAt": "2024-06-21T21:08:25.119Z",
  "devdoc": {
    "kind": "dev",
    "methods": {},
    "version": 1
  },
  "userdoc": {
    "kind": "user",
    "methods": {},
    "version": 1
  }
}