{
  "contractName": "ContractManager",
  "abi": [
    {
      "inputs": [],
      "name": "ownerAddr",
      "outputs": [
        {
          "internalType": "address",
          "name": "",
          "type": "address"
        }
      ],
      "stateMutability": "view",
      "type": "function",
      "constant": true
    },
    {
      "inputs": [
        {
          "internalType": "address",
          "name": "_newOwner",
          "type": "address"
        }
      ],
      "name": "transferOwnership",
      "outputs": [],
      "stateMutability": "nonpayable",
      "type": "function"
    },
    {
      "inputs": [
        {
          "internalType": "string",
          "name": "_name",
          "type": "string"
        },
        {
          "internalType": "address",
          "name": "_address",
          "type": "address"
        }
      ],
      "name": "setAddress",
      "outputs": [],
      "stateMutability": "nonpayable",
      "type": "function"
    },
    {
      "inputs": [
        {
          "internalType": "string",
          "name": "_name",
          "type": "string"
        }
      ],
      "name": "getAddress",
      "outputs": [
        {
          "internalType": "address",
          "name": "",
          "type": "address"
        }
      ],
      "stateMutability": "view",
      "type": "function",
      "constant": true
    },
    {
      "inputs": [
        {
          "internalType": "string",
          "name": "_name",
          "type": "string"
        }
      ],
      "name": "deleteAddress",
      "outputs": [],
      "stateMutability": "nonpayable",
      "type": "function"
    }
  ],
  "bytecode": "0x608060405234801561001057600080fd5b50336000806101000a81548173ffffffffffffffffffffffffffffffffffffffff021916908373ffffffffffffffffffffffffffffffffffffffff16021790555061064c806100606000396000f3fe608060405234801561001057600080fd5b50600436106100575760003560e01c80639b2ea4bd1461005c5780639c675eaa14610078578063bf40fac114610096578063c193b42a146100c6578063f2fde38b146100e2575b600080fd5b610076600480360381019061007191906103e8565b6100fe565b005b61008061015f565b60405161008d9190610493565b60405180910390f35b6100b060048036038101906100ab91906103a7565b610183565b6040516100bd9190610493565b60405180910390f35b6100e060048036038101906100db91906103a7565b6101cb565b005b6100fc60048036038101906100f7919061037e565b61022c565b005b8060018360405161010f919061047c565b908152602001604051809103902060006101000a81548173ffffffffffffffffffffffffffffffffffffffff021916908373ffffffffffffffffffffffffffffffffffffffff1602179055505050565b60008054906101000a900473ffffffffffffffffffffffffffffffffffffffff1681565b6000600182604051610195919061047c565b908152602001604051809103902060009054906101000a900473ffffffffffffffffffffffffffffffffffffffff169050919050565b60006001826040516101dd919061047c565b908152602001604051809103902060006101000a81548173ffffffffffffffffffffffffffffffffffffffff021916908373ffffffffffffffffffffffffffffffffffffffff16021790555050565b60008054906101000a900473ffffffffffffffffffffffffffffffffffffffff1673ffffffffffffffffffffffffffffffffffffffff163373ffffffffffffffffffffffffffffffffffffffff161461028457600080fd5b600073ffffffffffffffffffffffffffffffffffffffff168173ffffffffffffffffffffffffffffffffffffffff1614156102be57600080fd5b806000806101000a81548173ffffffffffffffffffffffffffffffffffffffff021916908373ffffffffffffffffffffffffffffffffffffffff16021790555050565b600061031461030f846104d3565b6104ae565b90508281526020810184848401111561032c57600080fd5b61033784828561054c565b509392505050565b60008135905061034e816105ff565b92915050565b600082601f83011261036557600080fd5b8135610375848260208601610301565b91505092915050565b60006020828403121561039057600080fd5b600061039e8482850161033f565b91505092915050565b6000602082840312156103b957600080fd5b600082013567ffffffffffffffff8111156103d357600080fd5b6103df84828501610354565b91505092915050565b600080604083850312156103fb57600080fd5b600083013567ffffffffffffffff81111561041557600080fd5b61042185828601610354565b92505060206104328582860161033f565b9150509250929050565b6104458161051a565b82525050565b600061045682610504565b610460818561050f565b935061047081856020860161055b565b80840191505092915050565b6000610488828461044b565b915081905092915050565b60006020820190506104a8600083018461043c565b92915050565b60006104b86104c9565b90506104c4828261058e565b919050565b6000604051905090565b600067ffffffffffffffff8211156104ee576104ed6105bf565b5b6104f7826105ee565b9050602081019050919050565b600081519050919050565b600081905092915050565b60006105258261052c565b9050919050565b600073ffffffffffffffffffffffffffffffffffffffff82169050919050565b82818337600083830152505050565b60005b8381101561057957808201518184015260208101905061055e565b83811115610588576000848401525b50505050565b610597826105ee565b810181811067ffffffffffffffff821117156105b6576105b56105bf565b5b80604052505050565b7f4e487b7100000000000000000000000000000000000000000000000000000000600052604160045260246000fd5b6000601f19601f8301169050919050565b6106088161051a565b811461061357600080fd5b5056fea2646970667358221220580fc0f28723bbcbc9e3688332361aeae699900579568410d156ca3ce78a043364736f6c63430008020033",
  "immutableReferences": {},
  "source": "// SPDX-License-Identifier: MIT \npragma solidity >=0.7.0 <0.9.0;\n\nimport './helpers/Owned.sol';\n\ncontract ContractManager is Owned {\n  mapping (string => address) addresses;\n\n\n  function setAddress(string  memory _name, address _address) public {\n    addresses[_name] = _address;\n  }\n\n  function getAddress(string memory _name) public view returns(address){\n    return addresses[_name];\n  }\n\n  function deleteAddress(string memory _name) public {\n    addresses[_name] = address(0);\n  }\n\n}",
  "sourcePath": "/Users/mmmjck/Documents/Projects/web3/tweether/contracts/ContractManager.sol",
  "compiler": {
    "name": "solc",
    "version": "0.8.2+commit.661d1103.Emscripten.clang"
  },
  "schemaVersion": "3.4.16",
  "updatedAt": "2024-06-21T21:33:38.625Z",
  "networkType": "ethereum",
  "devdoc": {
    "kind": "dev",
    "methods": {},
    "version": 1
  },
  "userdoc": {
    "kind": "user",
    "methods": {},
    "version": 1
  }
}