{
  "contractName": "TweetStorage",
  "abi": [
    {
      "inputs": [],
      "name": "controllerAddr",
      "outputs": [
        {
          "internalType": "address",
          "name": "",
          "type": "address"
        }
      ],
      "stateMutability": "view",
      "type": "function",
      "constant": true
    },
    {
      "inputs": [],
      "name": "ownerAddr",
      "outputs": [
        {
          "internalType": "address",
          "name": "",
          "type": "address"
        }
      ],
      "stateMutability": "view",
      "type": "function",
      "constant": true
    },
    {
      "inputs": [
        {
          "internalType": "address",
          "name": "_controllerAddress",
          "type": "address"
        }
      ],
      "name": "setControllerAddr",
      "outputs": [],
      "stateMutability": "nonpayable",
      "type": "function"
    },
    {
      "inputs": [
        {
          "internalType": "address",
          "name": "_newOwner",
          "type": "address"
        }
      ],
      "name": "transferOwnership",
      "outputs": [],
      "stateMutability": "nonpayable",
      "type": "function"
    },
    {
      "inputs": [
        {
          "internalType": "uint256",
          "name": "",
          "type": "uint256"
        }
      ],
      "name": "tweets",
      "outputs": [
        {
          "internalType": "uint256",
          "name": "id",
          "type": "uint256"
        },
        {
          "internalType": "string",
          "name": "text",
          "type": "string"
        },
        {
          "internalType": "uint256",
          "name": "userId",
          "type": "uint256"
        },
        {
          "internalType": "uint256",
          "name": "postedAt",
          "type": "uint256"
        }
      ],
      "stateMutability": "view",
      "type": "function",
      "constant": true
    },
    {
      "inputs": [
        {
          "internalType": "uint256",
          "name": "_userId",
          "type": "uint256"
        },
        {
          "internalType": "string",
          "name": "_text",
          "type": "string"
        }
      ],
      "name": "createTweet",
      "outputs": [
        {
          "internalType": "uint256",
          "name": "",
          "type": "uint256"
        }
      ],
      "stateMutability": "nonpayable",
      "type": "function"
    }
  ],
  "bytecode": "0x6080604052600060025534801561001557600080fd5b50336000806101000a81548173ffffffffffffffffffffffffffffffffffffffff021916908373ffffffffffffffffffffffffffffffffffffffff160217905550610a07806100656000396000f3fe608060405234801561001057600080fd5b50600436106100625760003560e01c80636981fa7d146100675780637cc82f20146100835780639c675eaa146100b3578063e8d857b0146100d1578063ee255c5714610104578063f2fde38b14610122575b600080fd5b610081600480360381019061007c91906105dd565b61013e565b005b61009d6004803603810190610098919061062f565b6101da565b6040516100aa91906106f5565b60405180910390f35b6100bb6102d1565b6040516100c891906106da565b60405180910390f35b6100eb60048036038101906100e69190610606565b6102f5565b6040516100fb9493929190610710565b60405180910390f35b61010c6103ad565b60405161011991906106da565b60405180910390f35b61013c600480360381019061013791906105dd565b6103d3565b005b60008054906101000a900473ffffffffffffffffffffffffffffffffffffffff1673ffffffffffffffffffffffffffffffffffffffff163373ffffffffffffffffffffffffffffffffffffffff161461019657600080fd5b80600160006101000a81548173ffffffffffffffffffffffffffffffffffffffff021916908373ffffffffffffffffffffffffffffffffffffffff16021790555050565b6000600160009054906101000a900473ffffffffffffffffffffffffffffffffffffffff1673ffffffffffffffffffffffffffffffffffffffff163373ffffffffffffffffffffffffffffffffffffffff161461023657600080fd5b60016002600082825461024991906107ce565b9250508190555060405180608001604052806002548152602001838152602001848152602001428152506003600060025481526020019081526020016000206000820151816000015560208201518160010190805190602001906102ae9291906104a8565b506040820151816002015560608201518160030155905050600254905092915050565b60008054906101000a900473ffffffffffffffffffffffffffffffffffffffff1681565b600360205280600052604060002060009150905080600001549080600101805461031e906108a2565b80601f016020809104026020016040519081016040528092919081815260200182805461034a906108a2565b80156103975780601f1061036c57610100808354040283529160200191610397565b820191906000526020600020905b81548152906001019060200180831161037a57829003601f168201915b5050505050908060020154908060030154905084565b600160009054906101000a900473ffffffffffffffffffffffffffffffffffffffff1681565b60008054906101000a900473ffffffffffffffffffffffffffffffffffffffff1673ffffffffffffffffffffffffffffffffffffffff163373ffffffffffffffffffffffffffffffffffffffff161461042b57600080fd5b600073ffffffffffffffffffffffffffffffffffffffff168173ffffffffffffffffffffffffffffffffffffffff16141561046557600080fd5b806000806101000a81548173ffffffffffffffffffffffffffffffffffffffff021916908373ffffffffffffffffffffffffffffffffffffffff16021790555050565b8280546104b4906108a2565b90600052602060002090601f0160209004810192826104d6576000855561051d565b82601f106104ef57805160ff191683800117855561051d565b8280016001018555821561051d579182015b8281111561051c578251825591602001919060010190610501565b5b50905061052a919061052e565b5090565b5b8082111561054757600081600090555060010161052f565b5090565b600061055e61055984610781565b61075c565b90508281526020810184848401111561057657600080fd5b610581848285610860565b509392505050565b600081359050610598816109a3565b92915050565b600082601f8301126105af57600080fd5b81356105bf84826020860161054b565b91505092915050565b6000813590506105d7816109ba565b92915050565b6000602082840312156105ef57600080fd5b60006105fd84828501610589565b91505092915050565b60006020828403121561061857600080fd5b6000610626848285016105c8565b91505092915050565b6000806040838503121561064257600080fd5b6000610650858286016105c8565b925050602083013567ffffffffffffffff81111561066d57600080fd5b6106798582860161059e565b9150509250929050565b61068c81610824565b82525050565b600061069d826107b2565b6106a781856107bd565b93506106b781856020860161086f565b6106c081610992565b840191505092915050565b6106d481610856565b82525050565b60006020820190506106ef6000830184610683565b92915050565b600060208201905061070a60008301846106cb565b92915050565b600060808201905061072560008301876106cb565b81810360208301526107378186610692565b905061074660408301856106cb565b61075360608301846106cb565b95945050505050565b6000610766610777565b905061077282826108d4565b919050565b6000604051905090565b600067ffffffffffffffff82111561079c5761079b610963565b5b6107a582610992565b9050602081019050919050565b600081519050919050565b600082825260208201905092915050565b60006107d982610856565b91506107e483610856565b9250827fffffffffffffffffffffffffffffffffffffffffffffffffffffffffffffffff0382111561081957610818610905565b5b828201905092915050565b600061082f82610836565b9050919050565b600073ffffffffffffffffffffffffffffffffffffffff82169050919050565b6000819050919050565b82818337600083830152505050565b60005b8381101561088d578082015181840152602081019050610872565b8381111561089c576000848401525b50505050565b600060028204905060018216806108ba57607f821691505b602082108114156108ce576108cd610934565b5b50919050565b6108dd82610992565b810181811067ffffffffffffffff821117156108fc576108fb610963565b5b80604052505050565b7f4e487b7100000000000000000000000000000000000000000000000000000000600052601160045260246000fd5b7f4e487b7100000000000000000000000000000000000000000000000000000000600052602260045260246000fd5b7f4e487b7100000000000000000000000000000000000000000000000000000000600052604160045260246000fd5b6000601f19601f8301169050919050565b6109ac81610824565b81146109b757600080fd5b50565b6109c381610856565b81146109ce57600080fd5b5056fea26469706673582212206b7d9c25907df007a1e48bd3fbf4eeabdc7ac42cc3a7240f5b092bc4c803f49764736f6c63430008020033",
  "immutableReferences": {},
  "source": "// SPDX-License-Identifier: MIT \npragma solidity >=0.7.0 <0.9.0;\n\nimport '../helpers/BaseStorage.sol';\n\ncontract TweetStorage is BaseStorage{\n    struct Tweet {\n        uint id;\n        string text;\n        uint userId;\n        uint postedAt;\n    }\n\n\n    uint latestTweetId = 0;\n\n    mapping(uint => Tweet) public tweets;\n\n\n    function createTweet(uint _userId, string memory _text) public onlyController returns (uint){\n        latestTweetId += 1;\n        tweets[latestTweetId] = Tweet(latestTweetId, _text, _userId, block.timestamp);\n        return latestTweetId;\n    }\n\n}",
  "sourcePath": "/Users/mmmjck/Documents/Projects/web3/tweether/contracts/tweets/TweetStorage.sol",
  "compiler": {
    "name": "solc",
    "version": "0.8.2+commit.661d1103.Emscripten.clang"
  },
  "schemaVersion": "3.4.16",
  "updatedAt": "2024-06-21T21:33:38.623Z",
  "networkType": "ethereum",
  "devdoc": {
    "kind": "dev",
    "methods": {},
    "version": 1
  },
  "userdoc": {
    "kind": "user",
    "methods": {},
    "version": 1
  }
}