{
  "contractName": "UserStorage",
  "abi": [
    {
      "inputs": [
        {
          "internalType": "address",
          "name": "",
          "type": "address"
        }
      ],
      "name": "addresses",
      "outputs": [
        {
          "internalType": "uint256",
          "name": "",
          "type": "uint256"
        }
      ],
      "stateMutability": "view",
      "type": "function",
      "constant": true
    },
    {
      "inputs": [],
      "name": "controllerAddr",
      "outputs": [
        {
          "internalType": "address",
          "name": "",
          "type": "address"
        }
      ],
      "stateMutability": "view",
      "type": "function",
      "constant": true
    },
    {
      "inputs": [],
      "name": "ownerAddr",
      "outputs": [
        {
          "internalType": "address",
          "name": "",
          "type": "address"
        }
      ],
      "stateMutability": "view",
      "type": "function",
      "constant": true
    },
    {
      "inputs": [
        {
          "internalType": "uint256",
          "name": "",
          "type": "uint256"
        }
      ],
      "name": "profiles",
      "outputs": [
        {
          "internalType": "uint256",
          "name": "id",
          "type": "uint256"
        },
        {
          "internalType": "bytes32",
          "name": "username",
          "type": "bytes32"
        },
        {
          "internalType": "bytes32",
          "name": "firstName",
          "type": "bytes32"
        },
        {
          "internalType": "bytes32",
          "name": "lastName",
          "type": "bytes32"
        },
        {
          "internalType": "string",
          "name": "bio",
          "type": "string"
        },
        {
          "internalType": "string",
          "name": "gravatarEmail",
          "type": "string"
        }
      ],
      "stateMutability": "view",
      "type": "function",
      "constant": true
    },
    {
      "inputs": [
        {
          "internalType": "address",
          "name": "_controllerAddress",
          "type": "address"
        }
      ],
      "name": "setControllerAddr",
      "outputs": [],
      "stateMutability": "nonpayable",
      "type": "function"
    },
    {
      "inputs": [
        {
          "internalType": "address",
          "name": "_newOwner",
          "type": "address"
        }
      ],
      "name": "transferOwnership",
      "outputs": [],
      "stateMutability": "nonpayable",
      "type": "function"
    },
    {
      "inputs": [
        {
          "internalType": "bytes32",
          "name": "",
          "type": "bytes32"
        }
      ],
      "name": "usernames",
      "outputs": [
        {
          "internalType": "uint256",
          "name": "",
          "type": "uint256"
        }
      ],
      "stateMutability": "view",
      "type": "function",
      "constant": true
    },
    {
      "inputs": [
        {
          "internalType": "address",
          "name": "_address",
          "type": "address"
        },
        {
          "internalType": "bytes32",
          "name": "_username",
          "type": "bytes32"
        },
        {
          "internalType": "bytes32",
          "name": "_firstName",
          "type": "bytes32"
        },
        {
          "internalType": "bytes32",
          "name": "_lastName",
          "type": "bytes32"
        },
        {
          "internalType": "string",
          "name": "_bio",
          "type": "string"
        },
        {
          "internalType": "string",
          "name": "_gravatarEmail",
          "type": "string"
        }
      ],
      "name": "createUser",
      "outputs": [
        {
          "internalType": "uint256",
          "name": "",
          "type": "uint256"
        }
      ],
      "stateMutability": "nonpayable",
      "type": "function"
    }
  ],
  "bytecode": "0x6080604052600060055534801561001557600080fd5b50336000806101000a81548173ffffffffffffffffffffffffffffffffffffffff021916908373ffffffffffffffffffffffffffffffffffffffff160217905550610cd1806100656000396000f3fe608060405234801561001057600080fd5b50600436106100885760003560e01c8063d399e63d1161005b578063d399e63d1461012c578063ec4d88d71461015c578063ee255c571461018c578063f2fde38b146101aa57610088565b80636981fa7d1461008d57806382d38954146100a95780639c675eaa146100d9578063c36fe3d6146100f7575b600080fd5b6100a760048036038101906100a291906107d3565b6101c6565b005b6100c360048036038101906100be91906107d3565b610262565b6040516100d09190610988565b60405180910390f35b6100e161027a565b6040516100ee919061096d565b60405180910390f35b610111600480360381019061010c91906108de565b61029e565b604051610123969594939291906109a3565b60405180910390f35b610146600480360381019061014191906107fc565b6103ea565b6040516101539190610988565b60405180910390f35b610176600480360381019061017191906108b5565b610576565b6040516101839190610988565b60405180910390f35b61019461058e565b6040516101a1919061096d565b60405180910390f35b6101c460048036038101906101bf91906107d3565b6105b4565b005b60008054906101000a900473ffffffffffffffffffffffffffffffffffffffff1673ffffffffffffffffffffffffffffffffffffffff163373ffffffffffffffffffffffffffffffffffffffff161461021e57600080fd5b80600160006101000a81548173ffffffffffffffffffffffffffffffffffffffff021916908373ffffffffffffffffffffffffffffffffffffffff16021790555050565b60036020528060005260406000206000915090505481565b60008054906101000a900473ffffffffffffffffffffffffffffffffffffffff1681565b60026020528060005260406000206000915090508060000154908060010154908060020154908060030154908060040180546102d990610b0c565b80601f016020809104026020016040519081016040528092919081815260200182805461030590610b0c565b80156103525780601f1061032757610100808354040283529160200191610352565b820191906000526020600020905b81548152906001019060200180831161033557829003601f168201915b50505050509080600501805461036790610b0c565b80601f016020809104026020016040519081016040528092919081815260200182805461039390610b0c565b80156103e05780601f106103b5576101008083540402835291602001916103e0565b820191906000526020600020905b8154815290600101906020018083116103c357829003601f168201915b5050505050905086565b6000600160009054906101000a900473ffffffffffffffffffffffffffffffffffffffff1673ffffffffffffffffffffffffffffffffffffffff163373ffffffffffffffffffffffffffffffffffffffff161461044657600080fd5b6005600081548092919061045990610b6f565b91905055506040518060c001604052806005548152602001878152602001868152602001858152602001848152602001838152506002600060055481526020019081526020016000206000820151816000015560208201518160010155604082015181600201556060820151816003015560808201518160040190805190602001906104e6929190610689565b5060a0820151816005019080519060200190610503929190610689565b50905050600554600360008973ffffffffffffffffffffffffffffffffffffffff1673ffffffffffffffffffffffffffffffffffffffff16815260200190815260200160002081905550600554600460008881526020019081526020016000208190555060055490509695505050505050565b60046020528060005260406000206000915090505481565b600160009054906101000a900473ffffffffffffffffffffffffffffffffffffffff1681565b60008054906101000a900473ffffffffffffffffffffffffffffffffffffffff1673ffffffffffffffffffffffffffffffffffffffff163373ffffffffffffffffffffffffffffffffffffffff161461060c57600080fd5b600073ffffffffffffffffffffffffffffffffffffffff168173ffffffffffffffffffffffffffffffffffffffff16141561064657600080fd5b806000806101000a81548173ffffffffffffffffffffffffffffffffffffffff021916908373ffffffffffffffffffffffffffffffffffffffff16021790555050565b82805461069590610b0c565b90600052602060002090601f0160209004810192826106b757600085556106fe565b82601f106106d057805160ff19168380011785556106fe565b828001600101855582156106fe579182015b828111156106fd5782518255916020019190600101906106e2565b5b50905061070b919061070f565b5090565b5b80821115610728576000816000905550600101610710565b5090565b600061073f61073a84610a37565b610a12565b90508281526020810184848401111561075757600080fd5b610762848285610aca565b509392505050565b60008135905061077981610c56565b92915050565b60008135905061078e81610c6d565b92915050565b600082601f8301126107a557600080fd5b81356107b584826020860161072c565b91505092915050565b6000813590506107cd81610c84565b92915050565b6000602082840312156107e557600080fd5b60006107f38482850161076a565b91505092915050565b60008060008060008060c0878903121561081557600080fd5b600061082389828a0161076a565b965050602061083489828a0161077f565b955050604061084589828a0161077f565b945050606061085689828a0161077f565b935050608087013567ffffffffffffffff81111561087357600080fd5b61087f89828a01610794565b92505060a087013567ffffffffffffffff81111561089c57600080fd5b6108a889828a01610794565b9150509295509295509295565b6000602082840312156108c757600080fd5b60006108d58482850161077f565b91505092915050565b6000602082840312156108f057600080fd5b60006108fe848285016107be565b91505092915050565b61091081610a84565b82525050565b61091f81610a96565b82525050565b600061093082610a68565b61093a8185610a73565b935061094a818560208601610ad9565b61095381610c45565b840191505092915050565b61096781610ac0565b82525050565b60006020820190506109826000830184610907565b92915050565b600060208201905061099d600083018461095e565b92915050565b600060c0820190506109b8600083018961095e565b6109c56020830188610916565b6109d26040830187610916565b6109df6060830186610916565b81810360808301526109f18185610925565b905081810360a0830152610a058184610925565b9050979650505050505050565b6000610a1c610a2d565b9050610a288282610b3e565b919050565b6000604051905090565b600067ffffffffffffffff821115610a5257610a51610c16565b5b610a5b82610c45565b9050602081019050919050565b600081519050919050565b600082825260208201905092915050565b6000610a8f82610aa0565b9050919050565b6000819050919050565b600073ffffffffffffffffffffffffffffffffffffffff82169050919050565b6000819050919050565b82818337600083830152505050565b60005b83811015610af7578082015181840152602081019050610adc565b83811115610b06576000848401525b50505050565b60006002820490506001821680610b2457607f821691505b60208210811415610b3857610b37610be7565b5b50919050565b610b4782610c45565b810181811067ffffffffffffffff82111715610b6657610b65610c16565b5b80604052505050565b6000610b7a82610ac0565b91507fffffffffffffffffffffffffffffffffffffffffffffffffffffffffffffffff821415610bad57610bac610bb8565b5b600182019050919050565b7f4e487b7100000000000000000000000000000000000000000000000000000000600052601160045260246000fd5b7f4e487b7100000000000000000000000000000000000000000000000000000000600052602260045260246000fd5b7f4e487b7100000000000000000000000000000000000000000000000000000000600052604160045260246000fd5b6000601f19601f8301169050919050565b610c5f81610a84565b8114610c6a57600080fd5b50565b610c7681610a96565b8114610c8157600080fd5b50565b610c8d81610ac0565b8114610c9857600080fd5b5056fea2646970667358221220f477a1d0245b7c54698dd4d5ca290e334222e33c6018d31d96ea1b2c7902e20e64736f6c63430008020033",
  "immutableReferences": {},
  "source": "// SPDX-License-Identifier: MIT\npragma solidity >=0.7.0 <0.9.0;\n\nimport \"../helpers/BaseStorage.sol\";\n\ncontract UserStorage is BaseStorage {\n    struct Profile {\n        uint id;\n        bytes32 username;\n        bytes32 firstName;\n        bytes32 lastName;\n        string bio;\n        string gravatarEmail;\n    }\n\n    mapping(uint => Profile) public profiles;\n    mapping(address => uint) public addresses;\n    mapping(bytes32 => uint) public usernames;\n    \n    \n    uint latestUserId = 0;\n\n    function createUser(\n        address _address,\n        bytes32 _username,\n        bytes32 _firstName,\n        bytes32 _lastName,\n        string memory _bio,\n        string memory _gravatarEmail\n    ) public onlyController returns (uint) {\n        \n        latestUserId++;\n        profiles[latestUserId] = Profile(\n            latestUserId,\n            _username,\n            _firstName,\n            _lastName,\n            _bio,\n            _gravatarEmail\n        );\n\n        addresses[_address] = latestUserId;\n        usernames[_username] = latestUserId;\n        return latestUserId;\n    }\n}\n",
  "sourcePath": "/Users/mmmjck/Documents/Projects/web3/tweether/contracts/users/UserStorage.sol",
  "compiler": {
    "name": "solc",
    "version": "0.8.2+commit.661d1103.Emscripten.clang"
  },
  "schemaVersion": "3.4.16",
  "updatedAt": "2024-06-21T21:33:38.255Z",
  "networkType": "ethereum",
  "devdoc": {
    "kind": "dev",
    "methods": {},
    "version": 1
  },
  "userdoc": {
    "kind": "user",
    "methods": {},
    "version": 1
  }
}